{
  "contractName": "EstateContract",
  "abi": [
    {
      "inputs": [],
      "payable": false,
      "stateMutability": "nonpayable",
      "type": "constructor"
    },
    {
      "anonymous": false,
      "inputs": [
        {
          "indexed": false,
          "internalType": "string",
          "name": "_t",
          "type": "string"
        }
      ],
      "name": "test",
      "type": "event"
    },
    {
      "constant": true,
      "inputs": [
        {
          "internalType": "uint256",
          "name": "",
          "type": "uint256"
        }
      ],
      "name": "estateList",
      "outputs": [
        {
          "internalType": "string",
          "name": "estateId",
          "type": "string"
        },
        {
          "internalType": "string",
          "name": "beginDate",
          "type": "string"
        },
        {
          "internalType": "string",
          "name": "endDate",
          "type": "string"
        },
        {
          "internalType": "string",
          "name": "owner",
          "type": "string"
        }
      ],
      "payable": false,
      "stateMutability": "view",
      "type": "function"
    },
    {
      "constant": false,
      "inputs": [
        {
          "internalType": "string",
          "name": "esName",
          "type": "string"
        },
        {
          "internalType": "string",
          "name": "esDate",
          "type": "string"
        },
        {
          "internalType": "string",
          "name": "esOwner",
          "type": "string"
        }
      ],
      "name": "createEstate",
      "outputs": [],
      "payable": false,
      "stateMutability": "nonpayable",
      "type": "function"
    },
    {
      "constant": true,
      "inputs": [
        {
          "internalType": "uint256",
          "name": "indexI",
          "type": "uint256"
        }
      ],
      "name": "getEstate",
      "outputs": [
        {
          "components": [
            {
              "internalType": "string",
              "name": "estateId",
              "type": "string"
            },
            {
              "internalType": "string",
              "name": "beginDate",
              "type": "string"
            },
            {
              "internalType": "string",
              "name": "endDate",
              "type": "string"
            },
            {
              "internalType": "string",
              "name": "owner",
              "type": "string"
            }
          ],
          "internalType": "struct EstateContract.Estate",
          "name": "",
          "type": "tuple"
        }
      ],
      "payable": false,
      "stateMutability": "view",
      "type": "function"
    },
    {
      "constant": true,
      "inputs": [],
      "name": "getIndex",
      "outputs": [
        {
          "internalType": "uint256",
          "name": "",
          "type": "uint256"
        }
      ],
      "payable": false,
      "stateMutability": "view",
      "type": "function"
    }
  ],
  "bytecode": "0x608060405234801561001057600080fd5b5060008081905550610c58806100276000396000f3fe608060405234801561001057600080fd5b506004361061004c5760003560e01c8063786420d11461005157806381045ead14610081578063b8cd49be1461009f578063cdc917fa146100bb575b600080fd5b61006b600480360361006691908101906108fb565b6100ee565b6040516100789190610ade565b60405180910390f35b6100896103a3565b6040516100969190610b00565b60405180910390f35b6100b960048036036100b49190810190610864565b6103ac565b005b6100d560048036036100d091908101906108fb565b61049e565b6040516100e59493929190610a5d565b60405180910390f35b6100f661072e565b60016000838152602001908152602001600020604051806080016040529081600082018054600181600116156101000203166002900480601f0160208091040260200160405190810160405280929190818152602001828054600181600116156101000203166002900480156101ad5780601f10610182576101008083540402835291602001916101ad565b820191906000526020600020905b81548152906001019060200180831161019057829003601f168201915b50505050508152602001600182018054600181600116156101000203166002900480601f01602080910402602001604051908101604052809291908181526020018280546001816001161561010002031660029004801561024f5780601f106102245761010080835404028352916020019161024f565b820191906000526020600020905b81548152906001019060200180831161023257829003601f168201915b50505050508152602001600282018054600181600116156101000203166002900480601f0160208091040260200160405190810160405280929190818152602001828054600181600116156101000203166002900480156102f15780601f106102c6576101008083540402835291602001916102f1565b820191906000526020600020905b8154815290600101906020018083116102d457829003601f168201915b50505050508152602001600382018054600181600116156101000203166002900480601f0160208091040260200160405190810160405280929190818152602001828054600181600116156101000203166002900480156103935780601f1061036857610100808354040283529160200191610393565b820191906000526020600020905b81548152906001019060200180831161037657829003601f168201915b5050505050815250509050919050565b60008054905090565b604051806080016040528084815260200183815260200183815260200182815250600160008054815260200190815260200160002060008201518160000190805190602001906103fd929190610756565b50602082015181600101908051906020019061041a929190610756565b506040820151816002019080519060200190610437929190610756565b506060820151816003019080519060200190610454929190610756565b509050506001600054016000819055507ff9fbd55454309325ccadd998a641a1dfe7cd888eea26c0ae93b95992a13ac14460405161049190610abe565b60405180910390a1505050565b6001602052806000526040600020600091509050806000018054600181600116156101000203166002900480601f01602080910402602001604051908101604052809291908181526020018280546001816001161561010002031660029004801561054a5780601f1061051f5761010080835404028352916020019161054a565b820191906000526020600020905b81548152906001019060200180831161052d57829003601f168201915b505050505090806001018054600181600116156101000203166002900480601f0160208091040260200160405190810160405280929190818152602001828054600181600116156101000203166002900480156105e85780601f106105bd576101008083540402835291602001916105e8565b820191906000526020600020905b8154815290600101906020018083116105cb57829003601f168201915b505050505090806002018054600181600116156101000203166002900480601f0160208091040260200160405190810160405280929190818152602001828054600181600116156101000203166002900480156106865780601f1061065b57610100808354040283529160200191610686565b820191906000526020600020905b81548152906001019060200180831161066957829003601f168201915b505050505090806003018054600181600116156101000203166002900480601f0160208091040260200160405190810160405280929190818152602001828054600181600116156101000203166002900480156107245780601f106106f957610100808354040283529160200191610724565b820191906000526020600020905b81548152906001019060200180831161070757829003601f168201915b5050505050905084565b6040518060800160405280606081526020016060815260200160608152602001606081525090565b828054600181600116156101000203166002900490600052602060002090601f016020900481019282601f1061079757805160ff19168380011785556107c5565b828001600101855582156107c5579182015b828111156107c45782518255916020019190600101906107a9565b5b5090506107d291906107d6565b5090565b6107f891905b808211156107f45760008160009055506001016107dc565b5090565b90565b600082601f83011261080c57600080fd5b813561081f61081a82610b48565b610b1b565b9150808252602083016020830185838301111561083b57600080fd5b610846838284610bab565b50505092915050565b60008135905061085e81610bfe565b92915050565b60008060006060848603121561087957600080fd5b600084013567ffffffffffffffff81111561089357600080fd5b61089f868287016107fb565b935050602084013567ffffffffffffffff8111156108bc57600080fd5b6108c8868287016107fb565b925050604084013567ffffffffffffffff8111156108e557600080fd5b6108f1868287016107fb565b9150509250925092565b60006020828403121561090d57600080fd5b600061091b8482850161084f565b91505092915050565b600061092f82610b74565b6109398185610b7f565b9350610949818560208601610bba565b61095281610bed565b840191505092915050565b600061096882610b74565b6109728185610b90565b9350610982818560208601610bba565b61098b81610bed565b840191505092915050565b60006109a3600c83610b90565b91507f63726561746545737461746500000000000000000000000000000000000000006000830152602082019050919050565b600060808301600083015184820360008601526109f38282610924565b91505060208301518482036020860152610a0d8282610924565b91505060408301518482036040860152610a278282610924565b91505060608301518482036060860152610a418282610924565b9150508091505092915050565b610a5781610ba1565b82525050565b60006080820190508181036000830152610a77818761095d565b90508181036020830152610a8b818661095d565b90508181036040830152610a9f818561095d565b90508181036060830152610ab3818461095d565b905095945050505050565b60006020820190508181036000830152610ad781610996565b9050919050565b60006020820190508181036000830152610af881846109d6565b905092915050565b6000602082019050610b156000830184610a4e565b92915050565b6000604051905081810181811067ffffffffffffffff82111715610b3e57600080fd5b8060405250919050565b600067ffffffffffffffff821115610b5f57600080fd5b601f19601f8301169050602081019050919050565b600081519050919050565b600082825260208201905092915050565b600082825260208201905092915050565b6000819050919050565b82818337600083830152505050565b60005b83811015610bd8578082015181840152602081019050610bbd565b83811115610be7576000848401525b50505050565b6000601f19601f8301169050919050565b610c0781610ba1565b8114610c1257600080fd5b5056fea365627a7a723158207786f49ca5598102acb5a755d5c3f078bcab086227d29124eca72c5a36a056ef6c6578706572696d656e74616cf564736f6c63430005100040",
  "source": "pragma solidity >=0.4.21 < 0.7.0;\npragma experimental ABIEncoderV2;\n\ncontract EstateContract{\n    event test(string _t);\n    struct Estate{\n        string estateId;\n        string beginDate;\n        string endDate;\n        string owner;\n    }\n    uint index;\n    mapping(uint => Estate) public estateList;\n\n    constructor() public {\n        index = 0;\n    }\n    function createEstate(string memory esName,string memory esDate,string memory esOwner) public {\n        estateList[index] = Estate(esName,esDate,esDate,esOwner);\n        index = index + 1;\n        emit test(\"createEstate\");\n    }\n    function getEstate(uint indexI) public view returns(Estate memory){\n        return estateList[indexI];\n    }\n    function getIndex() public view returns(uint){\n        return index;\n    }\n}\n",
  "sourcePath": "/mnt/d/truffle/proj6/contracts/EstateContract.sol",
  "compiler": {
    "name": "solc",
    "version": "0.5.16+commit.9c3226ce.Emscripten.clang"
  },
  "schemaVersion": "3.0.23",
  "updatedAt": "2020-03-15T16:45:32.775Z",
  "networkType": "ethereum",
  "devdoc": {
    "methods": {}
  },
  "userdoc": {
    "methods": {}
  }
}